:1000000012C0189518951895189518951895189563
:100010001895189518951895189518951895189578
:100020001895189518958FE58DBFC8E3E0E24E2E20
:1000300084E08EBFD4E0F4E05F2EA89584B7082E4C
:10004000877F84BF88E1992781BD91BDEEEFF3E002
:10005000A0E6B0E088278D933197E9F76624B89839
:10006000B998BA98BB98BC98BD98BE98BF98A0980C
:10007000A1988E988D9A8C9A8B9A8A9A899A889A46
:10008000A59AA49AA39AA29A8F9A959894989398CD
:10009000929891989098AD98AC98AB98AA989798A8
:1000A00081E090E0A4E6B0E08D939C93A4E6B0E0FC
:1000B0000D911C910B3050E0150714F009F00EC0A3
:1000C00080E0A4E6B0E0AD90BC90A5E6B0E0AA0D5B
:1000D000BB1D8C93A4E6B0E03CD2E8CF88EE93E061
:1000E000A0E6B0E08D939C9380ED97E0A2E6B0E0AF
:1000F0008D939C93B09B03C081E080936600B19B7D
:1001000003C081E080936700B29B03C081E08093CD
:100110006800B39B03C081E080936900B49B03C077
:1001200081E080936A00B59B03C081E080936B00FF
:10013000B69B03C081E080936C00B79B03C081E055
:1001400080936D00989B03C081E080936E00999B23
:1001500003C081E080936F00869B03C081E08093A1
:100160007000A0E6B0E08D919C9103D2A6E3B0E0D0
:100170000C9100FB81E00EF080E08F93009166000F
:10018000013081E009F080E09F918923882309F400
:1001900008C013D1959A80E08093660081E0809337
:1001A0007100A6E3B0E00C9101FB81E00EF080E06D
:1001B0008F9300916700013081E009F080E09F910A
:1001C0008923882309F408C0F8D0949A80E08093AA
:1001D000670081E080937200A6E3B0E00C9102FB1F
:1001E00081E00EF080E08F9300916800013081E0A3
:1001F00009F080E09F918923882309F408C0DDD0AD
:10020000939A80E08093680081E080937300A6E376
:10021000B0E00C9103FB81E00EF080E08F93009141
:100220006900013081E009F080E09F9189238823F3
:1002300009F408C0C2D0929A80E08093690081E0FE
:1002400080937400A6E3B0E00C9104FB81E00EF013
:1002500080E08F9300916A00013081E009F080E036
:100260009F918923882309F408C0A7D0919A80E040
:1002700080936A0081E080937500A6E3B0E00C9162
:1002800005FB81E00EF080E08F9300916B00013060
:1002900081E009F080E09F918923882309F408C058
:1002A0008CD0909A80E080936B0081E08093760000
:1002B000A6E3B0E00C9106FB81E00EF080E08F93A6
:1002C00000916C00013081E009F080E09F9189236A
:1002D000882309F408C071D0AD9A80E080936C0047
:1002E00081E080937700A6E3B0E00C9107FB81E00A
:1002F0000EF080E08F9300916D00013081E009F0F5
:1003000080E09F918923882309F408C056D0AC9AD5
:1003100080E080936D0081E080937800A3E3B0E0FB
:100320000C9100FB81E00EF080E08F9300916E0055
:10033000013081E009F080E09F918923882309F44E
:1003400008C03BD0AB9A80E080936E0081E0809340
:100350007900A3E3B0E00C9101FB81E00EF080E0B6
:100360008F9300916F00013081E009F080E09F9150
:100370008923882309F408C020D0AA9A80E08093BA
:100380006F0081E080937A00A0E3B0E00C9106FB5F
:1003900081E00EF080E08F9300917000013081E0E9
:1003A00009F080E09F918923882309F404C089D053
:1003B00080E08093700009D09DCE979AA2E6B0E0CD
:1003C0008D919C91D6D0979808950091710000303E
:1003D00009F001C0959A00917200003009F001C047
:1003E000949A00917300003009F001C0939A009133
:1003F0007400003009F001C0929A0091750000303D
:1004000009F001C0919A00917600003009F001C016
:10041000909A00917700003009F001C0AD9A0091E8
:100420007800003009F001C0AC9A009179000030EA
:1004300009F001C0AB9A00917A00003009F001C0C8
:10044000AA9A89E190E095D000917100003009F0FE
:1004500001C0959800917200003009F001C0949895
:1004600000917300003009F001C09398009174006E
:10047000003009F001C0929800917500003009F039
:1004800001C0919800917600003009F001C0909869
:1004900000917700003009F001C0AD98009178001C
:1004A000003009F001C0AC9800917900003009F0EB
:1004B00001C0AB9800917A00003009F001C0AA9801
:1004C000089581E090E0A4E6B0E08D939C93A4E6CB
:1004D000B0E00D911C910B3050E0150714F009F0BD
:1004E0000EC080E0A4E6B0E0AD90BC90A5E6B0E020
:1004F000AA0DBB1D8C93A4E6B0E02BD0E8CF81E021
:1005000090E0A4E6B0E08D939C93A4E6B0E00D915A
:100510001C910A3050E0150714F009F00EC080E07D
:10052000A4E6B0E0AD90BC90A0E7B0E0AA0DBB1D82
:100530008C93A4E6B0E00DD0E8CF9598949893986A
:10054000929891989098AD98AC98AB98AA989798F3
:100550000895ED91FC91EF5FFF4FFC93EE930895AA
:100560003197F1F70895689462F80895E89462F875
:100570000895EF93FF93EE27E82BE92B31F0E0EDA0
:10058000F7E03197F1F70197D1F7FF91EF910895D7
:00000001FF
